:0400000080314F28D4
:100008007E14803120007F08FC00111C4B28111041
:10001800F63097003B3096003C287A088C0074082C
:10002800203E8600870101088D0076082E287A0870
:100038008C007508203E8600870101088D0077082E
:100048002E287A088C002A08203E8600870101089D
:100058008D0078088C004B287A088C002B08203EED
:100068008600870101088D0079088C00FB014B2868
:100078007B08FB0A003A03191128013A03191B28C7
:10008800033A03192528013A031930284B287C081C
:10009800FF007E10090080315128FB01C430840024
:1000A800803085007630860000308700053080314A
:1000B800BE208031B4308400803085002030860036
:1000C800003087000A308031BE207E102000803149
:1000D8006D2880319D208031F401F501F50A023048
:1000E8002000AC002C08AA000330AC002C08AB00A0
:1000F8000030F3000030F2000030F1000030F00072
:1001080000307302031D922800307202031D9228EA
:1001180000307102031D92286430700203187028A1
:100128000130F0070030F13D0030F23D0030F33D82
:10013800842873302100990023008C0121008C0150
:1001480023008D0121008D01FF3020008C00FF303D
:100158008D0011309800210011140B178B1708001F
:10016800C034F934A434B034FF34FF34FF34FF34DE
:10017800FF34FF34FE0012001E00FE0BBF280034BF
:0A018800FE34FD34FB34F734FF347D
:020000040001F9
:04000E00E4FFFFDE2E
:00000001FF
